{
  "_format": "hh-sol-artifact-1",
  "contractName": "Upload",
  "sourceName": "contracts/Upload.sol",
  "abi": [
    {
      "inputs": [
        {
          "internalType": "address",
          "name": "_user",
          "type": "address"
        },
        {
          "internalType": "uint256",
          "name": "_fileIndex",
          "type": "uint256"
        }
      ],
      "name": "addDownload",
      "outputs": [],
      "stateMutability": "nonpayable",
      "type": "function"
    },
    {
      "inputs": [
        {
          "internalType": "address",
          "name": "_user",
          "type": "address"
        },
        {
          "internalType": "uint256",
          "name": "_fileIndex",
          "type": "uint256"
        }
      ],
      "name": "addView",
      "outputs": [],
      "stateMutability": "nonpayable",
      "type": "function"
    },
    {
      "inputs": [
        {
          "internalType": "address",
          "name": "user",
          "type": "address"
        }
      ],
      "name": "allow",
      "outputs": [],
      "stateMutability": "nonpayable",
      "type": "function"
    },
    {
      "inputs": [
        {
          "internalType": "address",
          "name": "user",
          "type": "address"
        }
      ],
      "name": "disallow",
      "outputs": [],
      "stateMutability": "nonpayable",
      "type": "function"
    },
    {
      "inputs": [
        {
          "internalType": "address",
          "name": "_user",
          "type": "address"
        }
      ],
      "name": "display",
      "outputs": [
        {
          "components": [
            {
              "internalType": "string",
              "name": "url",
              "type": "string"
            },
            {
              "internalType": "string",
              "name": "fileName",
              "type": "string"
            },
            {
              "internalType": "string",
              "name": "fileSize",
              "type": "string"
            },
            {
              "internalType": "uint256",
              "name": "views",
              "type": "uint256"
            },
            {
              "internalType": "uint256",
              "name": "downloads",
              "type": "uint256"
            },
            {
              "internalType": "string",
              "name": "emailAddress",
              "type": "string"
            }
          ],
          "internalType": "struct Upload.File[]",
          "name": "",
          "type": "tuple[]"
        }
      ],
      "stateMutability": "view",
      "type": "function"
    },
    {
      "inputs": [],
      "name": "shareAccess",
      "outputs": [
        {
          "components": [
            {
              "internalType": "address",
              "name": "user",
              "type": "address"
            },
            {
              "internalType": "bool",
              "name": "access",
              "type": "bool"
            }
          ],
          "internalType": "struct Upload.Access[]",
          "name": "",
          "type": "tuple[]"
        }
      ],
      "stateMutability": "view",
      "type": "function"
    },
    {
      "inputs": [
        {
          "internalType": "string",
          "name": "_url",
          "type": "string"
        },
        {
          "internalType": "string",
          "name": "_fileName",
          "type": "string"
        },
        {
          "internalType": "string",
          "name": "_fileSize",
          "type": "string"
        },
        {
          "internalType": "string",
          "name": "_emailAddress",
          "type": "string"
        }
      ],
      "name": "uploadFile",
      "outputs": [],
      "stateMutability": "nonpayable",
      "type": "function"
    }
  ],
  "bytecode": "0x608060405234801561001057600080fd5b506119c6806100206000396000f3fe608060405234801561001057600080fd5b506004361061007d5760003560e01c8063bc8bef811161005b578063bc8bef81146100d6578063eb39113f146100f4578063f0286d4614610124578063ff9913e8146101405761007d565b806324dd6ccc146100825780636d1411041461009e578063a9ed9cb8146100ba575b600080fd5b61009c6004803603810190610097919061123e565b61015c565b005b6100b860048036038101906100b3919061123e565b6102d6565b005b6100d460048036038101906100cf919061127e565b610450565b005b6100de610673565b6040516100eb91906113b3565b60405180910390f35b61010e6004803603810190610109919061127e565b61077c565b60405161011b91906115dd565b60405180910390f35b61013e60048036038101906101399190611734565b61088d565b005b61015a6004803603810190610155919061127e565b6109b3565b005b3373ffffffffffffffffffffffffffffffffffffffff168273ffffffffffffffffffffffffffffffffffffffff16148061021c5750600160003373ffffffffffffffffffffffffffffffffffffffff1673ffffffffffffffffffffffffffffffffffffffff16815260200190815260200160002060008373ffffffffffffffffffffffffffffffffffffffff1673ffffffffffffffffffffffffffffffffffffffff16815260200190815260200160002060009054906101000a900460ff165b61025b576040517f08c379a000000000000000000000000000000000000000000000000000000000815260040161025290611868565b60405180910390fd5b6000808373ffffffffffffffffffffffffffffffffffffffff1673ffffffffffffffffffffffffffffffffffffffff16815260200190815260200160002081815481106102ab576102aa611888565b5b906000526020600020906006020160030160008154809291906102cd906118e6565b91905055505050565b3373ffffffffffffffffffffffffffffffffffffffff168273ffffffffffffffffffffffffffffffffffffffff1614806103965750600160003373ffffffffffffffffffffffffffffffffffffffff1673ffffffffffffffffffffffffffffffffffffffff16815260200190815260200160002060008373ffffffffffffffffffffffffffffffffffffffff1673ffffffffffffffffffffffffffffffffffffffff16815260200190815260200160002060009054906101000a900460ff165b6103d5576040517f08c379a00000000000000000000000000000000000000000000000000000000081526004016103cc90611868565b60405180910390fd5b6000808373ffffffffffffffffffffffffffffffffffffffff1673ffffffffffffffffffffffffffffffffffffffff168152602001908152602001600020818154811061042557610424611888565b5b90600052602060002090600602016004016000815480929190610447906118e6565b91905055505050565b6000600160003373ffffffffffffffffffffffffffffffffffffffff1673ffffffffffffffffffffffffffffffffffffffff16815260200190815260200160002060008373ffffffffffffffffffffffffffffffffffffffff1673ffffffffffffffffffffffffffffffffffffffff16815260200190815260200160002060006101000a81548160ff02191690831515021790555060005b600260003373ffffffffffffffffffffffffffffffffffffffff1673ffffffffffffffffffffffffffffffffffffffff1681526020019081526020016000208054905081101561066f578173ffffffffffffffffffffffffffffffffffffffff16600260003373ffffffffffffffffffffffffffffffffffffffff1673ffffffffffffffffffffffffffffffffffffffff168152602001908152602001600020828154811061059a57610599611888565b5b9060005260206000200160000160009054906101000a900473ffffffffffffffffffffffffffffffffffffffff1673ffffffffffffffffffffffffffffffffffffffff16141561065c576000600260003373ffffffffffffffffffffffffffffffffffffffff1673ffffffffffffffffffffffffffffffffffffffff168152602001908152602001600020828154811061063757610636611888565b5b9060005260206000200160000160146101000a81548160ff0219169083151502179055505b8080610667906118e6565b9150506104e8565b5050565b6060600260003373ffffffffffffffffffffffffffffffffffffffff1673ffffffffffffffffffffffffffffffffffffffff168152602001908152602001600020805480602002602001604051908101604052809291908181526020016000905b82821015610773578382906000526020600020016040518060400160405290816000820160009054906101000a900473ffffffffffffffffffffffffffffffffffffffff1673ffffffffffffffffffffffffffffffffffffffff1673ffffffffffffffffffffffffffffffffffffffff1681526020016000820160149054906101000a900460ff161515151581525050815260200190600101906106d4565b50505050905090565b60603373ffffffffffffffffffffffffffffffffffffffff168273ffffffffffffffffffffffffffffffffffffffff16148061083e5750600160008373ffffffffffffffffffffffffffffffffffffffff1673ffffffffffffffffffffffffffffffffffffffff16815260200190815260200160002060003373ffffffffffffffffffffffffffffffffffffffff1673ffffffffffffffffffffffffffffffffffffffff16815260200190815260200160002060009054906101000a900460ff165b61087d576040517f08c379a000000000000000000000000000000000000000000000000000000000815260040161087490611868565b60405180910390fd5b61088682610dfa565b9050919050565b6000803373ffffffffffffffffffffffffffffffffffffffff1673ffffffffffffffffffffffffffffffffffffffff1681526020019081526020016000206040518060c001604052808681526020018581526020018481526020016000815260200160008152602001838152509080600181540180825580915050600190039060005260206000209060060201600090919091909150600082015181600001908051906020019061093f9291906110f3565b50602082015181600101908051906020019061095c9291906110f3565b5060408201518160020190805190602001906109799291906110f3565b50606082015181600301556080820151816004015560a08201518160050190805190602001906109aa9291906110f3565b50505050505050565b60018060003373ffffffffffffffffffffffffffffffffffffffff1673ffffffffffffffffffffffffffffffffffffffff16815260200190815260200160002060008373ffffffffffffffffffffffffffffffffffffffff1673ffffffffffffffffffffffffffffffffffffffff16815260200190815260200160002060006101000a81548160ff021916908315150217905550600360003373ffffffffffffffffffffffffffffffffffffffff1673ffffffffffffffffffffffffffffffffffffffff16815260200190815260200160002060008273ffffffffffffffffffffffffffffffffffffffff1673ffffffffffffffffffffffffffffffffffffffff16815260200190815260200160002060009054906101000a900460ff1615610c665760005b600260003373ffffffffffffffffffffffffffffffffffffffff1673ffffffffffffffffffffffffffffffffffffffff16815260200190815260200160002080549050811015610c60578173ffffffffffffffffffffffffffffffffffffffff16600260003373ffffffffffffffffffffffffffffffffffffffff1673ffffffffffffffffffffffffffffffffffffffff1681526020019081526020016000208281548110610b8b57610b8a611888565b5b9060005260206000200160000160009054906101000a900473ffffffffffffffffffffffffffffffffffffffff1673ffffffffffffffffffffffffffffffffffffffff161415610c4d576001600260003373ffffffffffffffffffffffffffffffffffffffff1673ffffffffffffffffffffffffffffffffffffffff1681526020019081526020016000208281548110610c2857610c27611888565b5b9060005260206000200160000160146101000a81548160ff0219169083151502179055505b8080610c58906118e6565b915050610ad9565b50610df7565b600260003373ffffffffffffffffffffffffffffffffffffffff1673ffffffffffffffffffffffffffffffffffffffff16815260200190815260200160002060405180604001604052808373ffffffffffffffffffffffffffffffffffffffff168152602001600115158152509080600181540180825580915050600190039060005260206000200160009091909190915060008201518160000160006101000a81548173ffffffffffffffffffffffffffffffffffffffff021916908373ffffffffffffffffffffffffffffffffffffffff16021790555060208201518160000160146101000a81548160ff02191690831515021790555050506001600360003373ffffffffffffffffffffffffffffffffffffffff1673ffffffffffffffffffffffffffffffffffffffff16815260200190815260200160002060008373ffffffffffffffffffffffffffffffffffffffff1673ffffffffffffffffffffffffffffffffffffffff16815260200190815260200160002060006101000a81548160ff0219169083151502179055505b50565b60606000808373ffffffffffffffffffffffffffffffffffffffff1673ffffffffffffffffffffffffffffffffffffffff168152602001908152602001600020805480602002602001604051908101604052809291908181526020016000905b828210156110e857838290600052602060002090600602016040518060c0016040529081600082018054610e8d9061195e565b80601f0160208091040260200160405190810160405280929190818152602001828054610eb99061195e565b8015610f065780601f10610edb57610100808354040283529160200191610f06565b820191906000526020600020905b815481529060010190602001808311610ee957829003601f168201915b50505050508152602001600182018054610f1f9061195e565b80601f0160208091040260200160405190810160405280929190818152602001828054610f4b9061195e565b8015610f985780601f10610f6d57610100808354040283529160200191610f98565b820191906000526020600020905b815481529060010190602001808311610f7b57829003601f168201915b50505050508152602001600282018054610fb19061195e565b80601f0160208091040260200160405190810160405280929190818152602001828054610fdd9061195e565b801561102a5780601f10610fff5761010080835404028352916020019161102a565b820191906000526020600020905b81548152906001019060200180831161100d57829003601f168201915b5050505050815260200160038201548152602001600482015481526020016005820180546110579061195e565b80601f01602080910402602001604051908101604052809291908181526020018280546110839061195e565b80156110d05780601f106110a5576101008083540402835291602001916110d0565b820191906000526020600020905b8154815290600101906020018083116110b357829003601f168201915b50505050508152505081526020019060010190610e5a565b505050509050919050565b8280546110ff9061195e565b90600052602060002090601f0160209004810192826111215760008555611168565b82601f1061113a57805160ff1916838001178555611168565b82800160010185558215611168579182015b8281111561116757825182559160200191906001019061114c565b5b5090506111759190611179565b5090565b5b8082111561119257600081600090555060010161117a565b5090565b6000604051905090565b600080fd5b600080fd5b600073ffffffffffffffffffffffffffffffffffffffff82169050919050565b60006111d5826111aa565b9050919050565b6111e5816111ca565b81146111f057600080fd5b50565b600081359050611202816111dc565b92915050565b6000819050919050565b61121b81611208565b811461122657600080fd5b50565b60008135905061123881611212565b92915050565b60008060408385031215611255576112546111a0565b5b6000611263858286016111f3565b925050602061127485828601611229565b9150509250929050565b600060208284031215611294576112936111a0565b5b60006112a2848285016111f3565b91505092915050565b600081519050919050565b600082825260208201905092915050565b6000819050602082019050919050565b6112e0816111ca565b82525050565b60008115159050919050565b6112fb816112e6565b82525050565b60408201600082015161131760008501826112d7565b50602082015161132a60208501826112f2565b50505050565b600061133c8383611301565b60408301905092915050565b6000602082019050919050565b6000611360826112ab565b61136a81856112b6565b9350611375836112c7565b8060005b838110156113a657815161138d8882611330565b975061139883611348565b925050600181019050611379565b5085935050505092915050565b600060208201905081810360008301526113cd8184611355565b905092915050565b600081519050919050565b600082825260208201905092915050565b6000819050602082019050919050565b600081519050919050565b600082825260208201905092915050565b60005b8381101561143b578082015181840152602081019050611420565b8381111561144a576000848401525b50505050565b6000601f19601f8301169050919050565b600061146c82611401565b611476818561140c565b935061148681856020860161141d565b61148f81611450565b840191505092915050565b6114a381611208565b82525050565b600060c08301600083015184820360008601526114c68282611461565b915050602083015184820360208601526114e08282611461565b915050604083015184820360408601526114fa8282611461565b915050606083015161150f606086018261149a565b506080830151611522608086018261149a565b5060a083015184820360a086015261153a8282611461565b9150508091505092915050565b600061155383836114a9565b905092915050565b6000602082019050919050565b6000611573826113d5565b61157d81856113e0565b93508360208202850161158f856113f1565b8060005b858110156115cb57848403895281516115ac8582611547565b94506115b78361155b565b925060208a01995050600181019050611593565b50829750879550505050505092915050565b600060208201905081810360008301526115f78184611568565b905092915050565b600080fd5b600080fd5b7f4e487b7100000000000000000000000000000000000000000000000000000000600052604160045260246000fd5b61164182611450565b810181811067ffffffffffffffff821117156116605761165f611609565b5b80604052505050565b6000611673611196565b905061167f8282611638565b919050565b600067ffffffffffffffff82111561169f5761169e611609565b5b6116a882611450565b9050602081019050919050565b82818337600083830152505050565b60006116d76116d284611684565b611669565b9050828152602081018484840111156116f3576116f2611604565b5b6116fe8482856116b5565b509392505050565b600082601f83011261171b5761171a6115ff565b5b813561172b8482602086016116c4565b91505092915050565b6000806000806080858703121561174e5761174d6111a0565b5b600085013567ffffffffffffffff81111561176c5761176b6111a5565b5b61177887828801611706565b945050602085013567ffffffffffffffff811115611799576117986111a5565b5b6117a587828801611706565b935050604085013567ffffffffffffffff8111156117c6576117c56111a5565b5b6117d287828801611706565b925050606085013567ffffffffffffffff8111156117f3576117f26111a5565b5b6117ff87828801611706565b91505092959194509250565b600082825260208201905092915050565b7f596f7520646f6e27742068617665206163636573730000000000000000000000600082015250565b600061185260158361180b565b915061185d8261181c565b602082019050919050565b6000602082019050818103600083015261188181611845565b9050919050565b7f4e487b7100000000000000000000000000000000000000000000000000000000600052603260045260246000fd5b7f4e487b7100000000000000000000000000000000000000000000000000000000600052601160045260246000fd5b60006118f182611208565b91507fffffffffffffffffffffffffffffffffffffffffffffffffffffffffffffffff821415611924576119236118b7565b5b600182019050919050565b7f4e487b7100000000000000000000000000000000000000000000000000000000600052602260045260246000fd5b6000600282049050600182168061197657607f821691505b6020821081141561198a5761198961192f565b5b5091905056fea26469706673582212208e434347b76f58890a80b81003a2794bcc065772025b4491d17015ca4b8cb37a64736f6c63430008090033",
  "linkReferences": {},
  "deployedLinkReferences": {}
}