{
    "_format": "hh-sol-artifact-1",
    "contractName": "UserAuthentication",
    "sourceName": "contracts/UserAuthentication.sol",
    "abi": [
        {
            "anonymous": false,
            "inputs": [
                {
                    "indexed": false,
                    "internalType": "address",
                    "name": "userAddress",
                    "type": "address"
                }
            ],
            "name": "UserRegistered",
            "type": "event"
        },
        {
            "inputs": [
                {
                    "internalType": "address",
                    "name": "userAddress",
                    "type": "address"
                }
            ],
            "name": "isRegistered",
            "outputs": [
                {
                    "internalType": "bool",
                    "name": "",
                    "type": "bool"
                }
            ],
            "stateMutability": "view",
            "type": "function"
        },
        {
            "inputs": [],
            "name": "register",
            "outputs": [],
            "stateMutability": "nonpayable",
            "type": "function"
        }
    ],
    "bytecode": "0x608060405234801561001057600080fd5b50610389806100206000396000f3fe608060405234801561001057600080fd5b50600436106100365760003560e01c80631aa3a0081461003b578063c3c5a54714610045575b600080fd5b610043610075565b005b61005f600480360381019061005a9190610249565b610191565b60405161006c9190610291565b60405180910390f35b6000803373ffffffffffffffffffffffffffffffffffffffff1673ffffffffffffffffffffffffffffffffffffffff16815260200190815260200160002060009054906101000a900460ff1615610101576040517f08c379a00000000000000000000000000000000000000000000000000000000081526004016100f890610309565b60405180910390fd5b60016000803373ffffffffffffffffffffffffffffffffffffffff1673ffffffffffffffffffffffffffffffffffffffff16815260200190815260200160002060006101000a81548160ff0219169083151502179055507f54db7a5cb4735e1aac1f53db512d3390390bb6637bd30ad4bf9fc98667d9b9b9336040516101879190610338565b60405180910390a1565b60008060008373ffffffffffffffffffffffffffffffffffffffff1673ffffffffffffffffffffffffffffffffffffffff16815260200190815260200160002060009054906101000a900460ff169050919050565b600080fd5b600073ffffffffffffffffffffffffffffffffffffffff82169050919050565b6000610216826101eb565b9050919050565b6102268161020b565b811461023157600080fd5b50565b6000813590506102438161021d565b92915050565b60006020828403121561025f5761025e6101e6565b5b600061026d84828501610234565b91505092915050565b60008115159050919050565b61028b81610276565b82525050565b60006020820190506102a66000830184610282565b92915050565b600082825260208201905092915050565b7f4164647265737320697320616c726561647920726567697374657265642e0000600082015250565b60006102f3601e836102ac565b91506102fe826102bd565b602082019050919050565b60006020820190508181036000830152610322816102e6565b9050919050565b6103328161020b565b82525050565b600060208201905061034d6000830184610329565b9291505056fea2646970667358221220c56b87d3442ed53411547140cfdfd89d713aaaacc50aabe6c79c365a0b57ecd464736f6c63430008130033",
    "linkReferences": {},
    "deployedLinkReferences": {}
}